:0600000002008B0201D595
:01000B0032C2
:030013000201C423
:01001B0032B2
:0100230032AA
:01002B0032A2
:01003300329A
:01003B003292
:01004300328A
:01004B003282
:01005300327A
:01005B003272
:01006300326A
:01006B003262
:01007300325A
:01007B003252
:030083000201E691
:0300FA000200867B
:0500860012013980FEAB
:1000FD005380BF9000641208B89013E475F080121D
:10010D0009E7900000E4F5F0120AA59013ED75F0E3
:10011D00801209E790DF05E0F582120A251208F03A
:10012D001208F04380409000640208B8120885124E
:10013D0008A443FD401211CB758202120C84D2D15A
:10014D00D2AF1208E81200FD1208DF1209C7120E15
:10015D00B080F8AA82E4B50902800E7401B50902D7
:10016D00802B7402B5094F80419013F975F080C052
:10017D00021209E7850882120A2590140075F08095
:10018D001209E7D0028A82120A250208F0A80AAAEB
:10019D000B8A031AEB6010868208C002C000120899
:1001AD00EDD000D00280EA0208F0A80AE660045300
:1001BD0080BF2243804022C0D030D106D0D0121152
:1001CD00BD32D0D002401332C0D030D106D0D012C3
:1001DD000DD832D0D002400332C0D030D106D0D0AD
:0A01ED00120E5E32D0D002408332C1
:1013E40050696E6B4F5320720020616464726573A0
:1013F400732030780041434B203078002066726FB0
:051404006D20307800AE
:0300E40075110093
:1001F700020890C2AF758805759800759B0075C099
:100207000075E80075A80075B800759A00C2D1E4BA
:10021700F5A8F5B8F5D0F582F583FFFEFDFCFBFAEE
:10022700F9F8758107024000221511E51124FC50E9
:1002370055AA107B007C408A828B838CF01213AC0A
:10024700AA82850F82C0021207A3AB82D0028B82DB
:100257008A1C12112EAA828A00A910E7600DE510E8
:10026700F904F5108702A6020880EE850D821207B1
:10027700A3AA82850E82C0021207A3AB82D0028B8B
:100287001D8A820211532215117402B51125751C9E
:100297000175820212112EA882850E82C0001207F4
:1002A700A3AA82D000A602850D821207A3751D801E
:1002B7000211532215117401B51115751C007582B1
:1002C7000312112E850D821207A3751D800211538B
:1002D7002215117404B51141751C0A758204121197
:1002E7002EA882850E82C0001207A3AA82D000A67C
:1002F7000208850F82C0001207A3AA82D000A602B7
:10030700E804F52185108275220812071D850D82E4
:100317001207A3751D000211532215117401B5119F
:1003270002800122850D821207A37512F07513F062
:100337007514F07515F075160F75170F75180F757D
:10034700190F7A00BA080050657B00BB1000505B9C
:10035700751C0A758204C002C00312112EA882D030
:1003670003D002EBC40354F8F608A60208AC12A6A1
:100377000408AC13A60408AC14A60408AC15A6041C
:1003870008AC16A60408AC17A60408AC18A60408FF
:10039700AC19A604850D82C002C0031207A3751D00
:1003A70000121153D003D0020B80A00A809622E5D9
:1003B7001124FE5025850D821207A3AA82AB83BAAA
:1003C7000005BB00028008BA010DBB000A80044388
:1003D7008040225380BF2263804022151174FF257D
:1003E70011400122850D821207A3AA82AB837401F3
:1003F700B5110280077402B51152803875822AC080
:1004070002C0031208EDD003D0028A828B83C00298
:10041700C003120A4475823D1208EDD003D0028A48
:10042700828B83E0F582C002C003120A251208F00E
:10043700D003D002850E82C002C0031207A3AC828C
:10044700AD83D003D0028A828B83ECF0227401B58E
:10045700110280077402B51157803D850D8212077E
:10046700A3AA82AB838A048B05EA4B602A8C1A7590
:10047700822AC004C0051208EDD005D0048C828DF5
:1004870083120A4475823D1208EDA81AE2F582121A
:100497000A251208F0800122850E821207A3AA827C
:1004A700AB838A048B05EA4B60068C1BA81BECF216
:1004B70022AA827511018A0C8A00860208EAFB606B
:1004C7001A74FB25114014BB20F0E814F97700AA31
:1004D700110511EA240CF9A70080DFAA0C7B007C28
:1004E700407572097573147574808A828B838CF0DA
:1004F700121327AA82AB83BA0005BB00028003024E
:10050700057890140E75F0801209E7900000E4F565
:10051700F0120AA590141775F0801209E790DF050D
:10052700E0F582120A251208F090142375F0801264
:1005370009E71208F090144275F0801209E71208D3
:10054700F090144875F0801209E71208F0901466CD
:1005570075F0801209E71208F090147175F0801297
:1005670009E71208F090148F75F0801209E7020866
:10057700F0AA0C7B007C4075724275731475748009
:100587008A828B838CF0121327AA82AB83BA000668
:10059700BB00030201F7AA0C7B007C407572A575AE
:1005A70073147574808A828B838CF0121327AA8246
:1005B700AB83BA0006BB00030201FAAA0C7B007CDE
:1005C700407572AA7573147574808A828B838CF058
:1005D700121327AA82AB83BA0006BB00030203B635
:1005E700AA0C7B007C407572AE7573147574808A93
:1005F700828B838CF0121327AA82AB83BA0006BBC7
:1006070000030203E2AA0C7B007C407572B4757389
:10061700147574808A828B838CF0121327AA82AB9D
:1006270083BA0006BB0003020454AA0C7B007C407B
:100637007572BA7573147574808A828B838CF01205
:100647001327AA82AB83BA0006BB0003020230AAB3
:100657000C7B007C407572BD7573147574808A823B
:100667008B838CF0121327AA82AB83BA0006BB00D8
:100677000302028EAA0C7B007C407572C575731449
:100687007574808A828B838CF0121327AA82AB83BE
:10069700BA0006BB00030202BBAA0C7B007C4075B4
:1006A70072CD7573147574808A828B838CF01213E4
:1006B70027AA82AB83BA0006BB00030202D8AA0CA2
:1006C7007B007C407572D57573147574808A828B34
:1006D700838CF0121327AA82AB83BA0006BB0003F0
:0406E70002032122C7
:1014090068656C700050696E6B4F532072002061E3
:10141900646472657373203078004A6F627920546E
:101429006166666579203C6A727440686F646765B5
:101439007069672E6F72673E007265736574003C50
:1014490078646174617C70646174613E203C61649C
:10145900647231363E205B76616C385D006C656480
:10146900203C626F6F6C3E007478203C6473743862
:101479003E203C736571383E203C747970383E20BB
:101489003C7374723E0074656C656C6564203C64E1
:101499007374383E203C626F6F6C3E00626F6F74EC
:1014A900006C6564007864617461007064617461E2
:1014B9000074780074656C656C65640067667869AA
:1014C9006E697400676678706C6F7400676678740B
:0414D90065737400C3
:1006EB00AA82C3EA648094E140047B57801EC3EA6C
:1006FB00648094C140047B378012C374B98AF06361
:10070B00F08095F040047B3080027B00EAC39BF5C0
:10071B0082228582237B007C00A823860508ED605E
:10072B00050C8C0380F5ECFB20E00AECC313FCC337
:10073B00E5229C5004758200227D00C3ED9B505531
:10074B00EDC3132521F8ED2523F98782C003C004DF
:10075B00C005C0001206EBAE82D000D005D004D08D
:10076B0003EEC454F0FE8D077A000FBF00010AEFB1
:10077B002523F98782C003C004C005C006C0001240
:10078B0006EBAA82D000D006D005D004D003EA4EE7
:10079B00F60D0D80A68C822285822475250A75297B
:1007AB00007D00A824860608EE60050D8D2980F5D6
:1007BB008D297E007F00BD0200E433F528BD0300C8
:1007CB00E433FD752600C3E5269529400302088016
:1007DB00E5262524F88603EE4F7043E52660057465
:1007EB0001B52611BB620EE528600490000022754E
:1007FB00250202087BE5267011BB680EE528600414
:10080B009000002275251002087B7401B5260FBBE2
:10081B00780CED60049000002275251080528B82BD
:10082B00C005C006C0071206EB858227D007D0068D
:10083B00D005C3E52764808525F063F08095F050E3
:10084B002BC005E525F5723395E0F5738E828F830A
:10085B00C00512130AAB82AA83D005E527FD339599
:10086B00E0FCED2BFEEC3AFFD0058004900000225B
:10087B0005260207D18E828F8322539ADFA2AFE423
:10088B0033F452A82274FC55C9F5F0740345F0F506
:10089B00C953C9FB43C90880FE53BEFBE5BE30E616
:1008AB00FB53C6B8E5C620E6FB43BE0422AA82ABC7
:1008BB00831ABAFF011BC3E49A74808BF063F08038
:1008CB0095F0500F7CB07D041CBCFF011DEC4D70EE
:0408DB00F780DE22A2
:0A00E700754B00754C00C201C20207
:1008DF009014DD75F0800209E7D2030208FC0211C3
:1008EF00E975820D1208ED75820A0208EDA20392D6
:1008FF0000300306754A00C20122C20222AA82AB4F
:10090F0083ACF030020F8A828B838CF0E54B12128E
:10091F00F1C202D322C322300004A201B322D32298
:10092F00E54CFA24FB4042EA2A2A90093D7302095A
:10093F007802094C020959020966020954758207A7
:10094F001208ED80241208F0801FE54A14242AF8BB
:10095F0086821208ED80127582081208ED758220CA
:10096F001208ED7582081208ED754C0022AA82203C
:10097F000006D2028A4B803D30010122BA08028064
:10098F0011BA0D028005BA7F148007D201754C048D
:10099F008023E54A601F154A754C03801874E125C2
:1009AF004A400F754C02AB4A054AEB242AF8A602BF
:1009BF008003754C0102092F30001C300119E54AE4
:1009CF00600DE54A242AF8760075822A1204B8755C
:1009DF004A001208DFC20122AA82AB83ACF08A82DE
:1009EF008B838CF01213C4FD60188D820ABA00013C
:1009FF000BC002C003C0041208EDD004D003D00214
:100A0F0080DC22AA82BA0A00500674302AF58222AC
:100A1F0074372AF58222AA8274F05AC4540FF582D1
:100A2F00C002120A121208EDD002740F5AF5821288
:100A3F000A120208EDAA82AB838B058D82C002C019
:100A4F0003120A25D003D0028A82020A25AA82AB9A
:100A5F0083ACF0FD8B078C008D018982C002C0032F
:100A6F00C004C005120A25D005D0048C008882C0AE
:100A7F0004C005120A25D005D004D0038B078F823E
:100A8F00C003C004C005120A25D005D004D003D07E
:100A9F00028A82020A2585824D85834E85F04FF5A5
:100AAF0050D2047E007FCA789A793BBE010CBF00FA
:100ABF0009B80006B90003020B7C8E728F7388741D
:100ACF008975854D82854E83854FF0E550C006C0F0
:100ADF0007C000C001121278AA82AB83ACF0FDD020
:100AEF0001D000D007D006EA4B4C4D6002C2042063
:100AFF00042C8E728F7388748975854D82854E8311
:100B0F00854FF0E550C006C007C000C00112127833
:100B1F00120A121208EDD001D000D007D0068E7243
:100B2F008F7388748975854D82854E83854FF0E567
:100B3F0050C006C007C000C0011211F585824D8557
:100B4F00834E85F04FF550D001D000D007D00675F9
:100B5F00720AE4F573F574F5758E828F8388F0E968
:100B6F00121278AE82AF83A8F0F9020ABA854D82CD
:100B7F00120A120208EDAA82758262C0021208EDF3
:100B8F00D002EA30E70C758231C0021208EDD002B4
:100B9F00800A758230C0021208EDD002EA30E60CEE
:100BAF00758231C0021208EDD002800A758230C002
:100BBF00021208EDD002EA30E50C758231C0021244
:100BCF0008EDD002800A758230C0021208EDD00203
:100BDF00EA30E40C758231C0021208EDD002800AAF
:100BEF00758230C0021208EDD002EA30E30C758234
:100BFF0031C0021208EDD002800A758230C0021295
:100C0F0008EDD002EA30E20C758231C0021208ED15
:100C1F00D002800A758230C0021208EDD002EA308D
:100C2F00E10C758231C0021208EDD002800A758284
:100C3F0030C0021208EDD002EA30E00675823102B0
:080C4F0008ED7582300208ED8A
:0214DD003E00CF
:0900F100757100C205C206C207C8
:100C570075825122AA827BFF90DF3BE0FCB502023E
:100C67008014EB6011900001C002C0031208B8D0D5
:100C770003D0021B80E2EB7002C322D322AA829028
:100C8700DF0074D3F090DF017491F090DF0274FFFE
:100C9700F090DF037404F090DF047405F090DF0533
:100CA700E4F090DF06F090DF07740CF090DF08E4C3
:100CB700F090DF097421F090DF0A7465F090DF0B84
:100CC700746AF090DF0C742DF090DF0D743BF09098
:100CD700DF0E7413F090DF0F7422F090DF1074F8BA
:100CE700F090DF117462F090DF127407F090DF1359
:100CF7007430F090DF147418F090DF15741DF090C5
:100D0700DF16741CF090DF1774C7F090DF18E4F05B
:100D170090DF1974B0F090DF1A74B6F090DF1B748F
:100D270010F090DF1C74EAF090DF1D742AF090DF5A
:100D37001EE4F090DF1F741FF090DF237488F0909B
:100D4700DF247431F090DF257409F090DF27E4F099
:100D570090DF28F090DF29F090DF2AF090DF2BE476
:100D6700F090DF2CF090DF2DF090DF2E7450F09094
:100D7700DF2FE4F090DF30F090DF31F090DF367452
:100D870001F090DF377403F090DF38E4F090DF393B
:100D9700F090DF3A7480F090DF3B7401F090DF3C15
:100DA700E4F090DF3D7494F090DF2E74C2F090DF92
:100DB70003E04402F090DF05EAF075E900439A0189
:100DC700D2A84391F175E104758201120C5B020F01
:100DD7001690DF3BE0FABA132AAA517B000ABA0041
:100DE700010BAC717D00C3EC9AED64808BF063F06E
:100DF7008095F0500BAA710571EA2451F886D92223
:100E0700D2052290DF3BE0FABA0D4BE5716022AACA
:100E1700517B000ABA00010BAC717D00C3EC9AED5F
:100E270064808BF063F08095F0501174E025714079
:100E37000BAA710571EA2451F8A6D922AA517B00A1
:100E47000ABA00010BAC717D00ECB50207EDB503E2
:100E570003D20722D20522539BFCE5E930E427AAF7
:100E6700517B000ABA00010BAC717D00ECB5020E94
:100E7700EDB5030A75E104757100D207800875E1C5
:100E870004757100D205E5E920E70AE5E920E605E2
:100E9700E5E930E50875E104757100D205E5E9304B
:100EA700E00375710075E90022300625300503025D
:100EB7000F1630073490DF39E0FA30E7051211B426
:100EC700800C9014DF75F0801209E71208F0020F0A
:100ED7001630050F9014EA75F0801209E71208F032
:100EE700120F16300703020F162275E104758201EF
:100EF700120C5B757100C206C207C20575E1037566
:100F07008213120C5B2007033005FAA205B3227582
:100F1700E104758201120C5BC205757100D206C22D
:0A0F27000775E10275820D020C5BF4
:1014DF0052582042616420435243005458204552D1
:0214EF005200A9
:100F3100120C57E582F804F9E76038740328FAC007
:100F410000A8028603D000EB30E728740228FCC019
:100F510000A8048605D000A70590DF05E0FDA904DF
:100F6100A705747F5BA902F7740428F9770076045A
:100F7100020EF122120C57A882880286031B1B1B4A
:100F81001B9014F175F080C002C003C0001209E784
:100F91009014F475F0801209E7D0008682C0001227
:100FA1000A259014FA75F0801209E7D000E804F9D7
:100FB1008782C000120A2590150075F0801209E79A
:100FC100D000740228F98782C000120A2590150604
:100FD10075F0801209E7D000740328F98704747F43
:100FE1005CF582C000C001120A2590150C75F080D5
:100FF1001209E7D001D000D003D002E7FC30E704AA
:101001007C3180027C308C82C002C003C000120897
:10101100ED90151575F0801209E790DF3AE0F58241
:10102100120A2590151C75F0801209E790DF39E04E
:10103100FC53047F7D007E007F008C828D838EF0C7
:10104100EF120AA590152275F0801209E7D000D0A1
:1010510003D00274042AF98782C003C000120A2552
:101061007582201208EDD000D003740528FAFC7DAA
:1010710000C3ED9B501BED2CF88682C002C003C05B
:1010810004C005120A25D005D004D003D0020D807A
:10109100E090152975F080C002C0031209E7D00362
:1010A100D0028A047A00C3EA9B5076EA2CF8868241
:1010B100C002C003C004C000121398E582D000D062
:1010C10004D003D00270188682C002C003C004128B
:1010D1001384E582D004D003D0027003FD80027D29
:1010E10001ED701BEA2CF88682C002C003C0041215
:1010F10012DDE582D004D003D0027003FD80027DB1
:1011010001ED6007EA2CF8860580027D2E8D82C0F4
:1011110002C003C0041208EDD004D003D0020A803B
:101121008590152C75F0801209E70208F0AA82C09B
:1011310002120C57A882D0027404251CF6740228EE
:10114100F990DF05E0F7740428F9A702740528F582
:101151008222AA82C002120C57AB82D002EB04F8A1
:10116100A60274032BF8A61D120EF1500B90152E3A
:1011710075F0801209E7800990153175F080120928
:10118100E71208F090000A0208B8120C57A882E68C
:1011910024FCF50B740228F98782740328F987026D
:1011A100747F5AF508740428F98709740528F50A2B
:0C11B100020160120F7512118B020F3149
:1014F100525800206C656E3D00206473743D0020DD
:101501007372633D00207365713D002072657161E6
:10151100636B3D0020727373693D00206C71693DFE
:101521000020747970653D0020220022004F4B009D
:051531004641494C0099
:1011BD00C28B120926500685C18202097C22AAF132
:1011CD0074FE5AF5F0740245F0F5F143F33C758663
:1011DD00C075C22275C50CD28BD2AA228582C1E5FB
:1011ED008630E1FB5386FD22F9E572457345744562
:1011FD007560777800C308E57520E73BE57225E05B
:10120D00F572E57333F573E57433F574E57533F500
:10121D0075E5829572E5839573E5F09574E995759D
:10122D0050D4C3E57513F575E57413F574E57313B3
:10123D00F573E57213F572E5829572FCE58395738E
:10124D00FDE5F09574FEE995754007F98EF08D83F7
:10125D008C82C3E57513F575E57413F574E5731399
:10126D00F573E57213F572D8CEE922FB7A20E4FC12
:10127D00FDFEFFE5822582F582E58333F583E5F0FA
:10128D0033F5F0EB33FB4017DAE98042E582258236
:10129D00F582E58333F583E5F033F5F0EB33FBECC5
:1012AD0033FCED33FDEE33FEEF33FFEC9572ED9530
:1012BD0073EE9574EF95754013EC9572FCED957387
:1012CD00FDEE9574FEEF9575FF438201DABEEB22BC
:0600BA00E478FFF6D8FD1A
:1012DD00AA82BA30004009EA24C640047582012270
:0412ED0075820022E4
:100098007900E94400601B7A009015367800759362
:1000A80000E493F2A308B800020593D9F4DAF275D4
:0200B80093FFB4
:1012F10020F71030F6118883A88220F507F6A8831D
:1013010075830022F280F7F022E5828572F0A4C590
:1013110082C0F08573F0A4D0F025F0C5838572F00A
:10132100A42583F58322AA82AB83ACF0AD72AE73A0
:10133100AF748A828B838CF01213C4F87900C002D7
:10134100C003C0048D828E838FF01213C4FA7B0018
:10135100E8C39AF8E99BF988758976D004D003D05F
:1013610002E84970178D828E838FF01213C4600CCE
:101371000ABA00010B0DBD00B90E80B685758285D4
:031381007683224E
:1000C0007800E84400600A7900759300E4F309D8E9
:1000D000FC7800E84400600C7900900000E4F0A394
:0400E000D8FCD9FA75
:10138400AA82BA61004009EA2485400475820122D8
:1013940075820022AA82BA41004009EA24A54004C9
:1013A4007582012275820022AA82AB831213C46063
:1013B40003A380F8C3E5829AF582E5839BF5832233
:0D008B007581761213E0E5826003020086A5
:1013C40020F71430F6148883A88220F507E6A88352
:1013D40075830022E280F7E49322E02275820022E2
:00000001FF
