:0600000002008B02023534
:01000B0032C2
:0100130032BA
:01001B0032B2
:0100230032AA
:01002B0032A2
:01003300329A
:01003B003292
:01004300328A
:01004B003282
:01005300327A
:01005B003272
:01006300326A
:01006B003262
:01007300325A
:01007B003252
:0300830002024630
:03010E0002008666
:0500860012014D80FE97
:1001110053A0F79000641207AE90184075F080125A
:1001210008D4900000E4F5F012099290184975F096
:10013100801208D490DF05E0F5821209121207E659
:100141001207E643A0089000640207AE12077B1273
:10015100079A43FF081211FD1210AA1213EA7582C1
:1001610001120B71D2D1D2AF1207DE1201111207A7
:10017100D512151A1208B4120D9D80F5AA82E5094F
:1001810024FB500122E509250925099001907302FC
:10019100019F0201C30201E00201ED0201F090188A
:1001A1005575F080C0021208D48508821209129098
:1001B100185C75F0801208D4D0028A8212091202EA
:1001C10007E6A80AAA0B8A031AEB6010868208C008
:1001D10002C0001207E3D000D00280EA0207E6A8BD
:1001E1000AE6600453A0F72243A008220213FF7518
:1001F100820112130A75820112125EA80A8682E830
:1002010004F9871FC000121224D000150B150B74BE
:100211000228F50AA80AAA0B8A031AEB6010868243
:1002210008C002C000121216D000D00280EA758206
:100231000002130AC0D030D106D0D0120CC532D082
:10024100D002400332C0D030D106D0D0120D4B3293
:06025100D0D00240833210
:1018400050696E6B4F53207200206164647265733F
:10185000732030780041434B203078002066726F4F
:051860006D203078004E
:0300E40075110093
:10025700020786C2AF758805759800759B0075C043
:100267000075E80075A80075B800759A00C2D1E45A
:10027700F5A8F5B8F5D0F582F583FFFEFDFCFBFA8E
:10028700F9F8758107024000221511E51124FC5089
:1002970055AA107B007C408A828B838CF012180849
:1002A700AA82850F82C002120699AB82D0028B8286
:1002B7008A1D12101BAA828A00A910E7600DE5109B
:1002C700F904F5108702A6020880EE850D82120652
:1002D70099AA82850E82C002120699AB82D0028B40
:1002E7001E8A820210402215117402B51125751D50
:1002F7000175820212101BA882850E82C0001206A9
:1003070099AA82D000A602850D82120699751E80D1
:1003170002104022E51124FE5025850D8212069910
:10032700AA82AB83BA0005BB00028008BA010DBBE5
:10033700000A800443A0082253A0F72263A00822E2
:10034700151174FF2511400122850D82120699AA05
:1003570082AB837401B5110280077402B511528014
:100367003875822AC002C0031207E3D003D0028A7D
:10037700828B83C002C00312093175823D1207E3E5
:10038700D003D0028A828B83E0F582C002C00312B9
:1003970009121207E6D003D002850E82C002C003FD
:1003A700120699AC82AD83D003D0028A828B83EC8C
:1003B700F0227401B5110280077402B51157803D10
:1003C700850D82120699AA82AB838A048B05EA4BB4
:1003D700602A8C1275822AC004C0051207E3D00573
:1003E700D0048C828D8312093175823D1207E3A8F0
:1003F70012E2F5821209121207E6800122850E82A7
:10040700120699AA82AB838A048B05EA4B60068C95
:1004170013A813ECF222AA827511018A0C8A0086AE
:100427000208EAFB601A74FB25114014BB20F0E8B0
:1004370014F97700AA110511EA240CF9A70080DF47
:10044700AA0C7B007C407572657573187574808A79
:10045700828B838CF0121783AA82AB83BA0005BB09
:10046700000280030204DD90186A75F0801208D438
:10047700900000E4F5F012099290187375F080125D
:1004870008D490DF05E0F5821209121207E69018EA
:100497007F75F0801208D41207E690189E75F080D9
:1004A7001208D41207E69018A475F0801208D41227
:1004B70007E69018C275F0801208D41207E6901864
:1004C700CD75F0801208D41207E69018EB75F0800E
:1004D7001208D40207E6AA0C7B007C4075729E7551
:1004E70073187574808A828B838CF0121783AA82A3
:1004F700AB83BA0006BB0003020257AA0C7B007C41
:10050700407572017573197574808A828B838CF0BC
:10051700121783AA82AB83BA0006BB000302025AF2
:10052700AA0C7B007C407572067573197574808AF6
:10053700828B838CF0121783AA82AB83BA0006BB27
:10054700000302031BAA0C7B007C4075720A7573BB
:10055700197574808A828B838CF0121783AA82ABF9
:1005670083BA0006BB0003020347AA0C7B007C404A
:100577007572107573197574808A828B838CF0126B
:100587001783AA82AB83BA0006BB00030203B9AA8A
:100597000C7B007C407572167573197574808A829E
:1005A7008B838CF0121783AA82AB83BA0006BB0039
:1005B70003020290AA0C7B007C40757219757319AF
:1005C7007574808A828B838CF0121783AA82AB831F
:0A05D700BA0006BB00030202EE2288
:1018650068656C700050696E6B4F53207200206183
:10187500646472657373203078004A6F627920540E
:101885006166666579203C6A727440686F64676555
:101895007069672E6F72673E007265736574003CF0
:1018A50078646174617C70646174613E203C61643C
:1018B500647231363E205B76616C385D006C656420
:1018C500203C626F6F6C3E007478203C6473743802
:1018D5003E203C736571383E203C747970383E205B
:1018E5003C7374723E0074656C656C6564203C6481
:1018F5007374383E203C626F6F6C3E00626F6F748C
:10190500006C656400786461746100706461746181
:0C1915000074780074656C656C656400FB
:1005E100AA82C3EA648094E140047B57801EC3EA77
:1005F100648094C140047B378012C374B98AF0636C
:10060100F08095F040047B3080027B00EAC39BF5CB
:1006110082228582167B007C00A816860508ED6083
:10062100050C8C0380F5ECFB20E00AECC313FCC342
:10063100E5159C5004758200227D00C3ED9B505549
:10064100EDC3132514F8ED2516F98782C003C00404
:10065100C005C0001205E1AE82D000D005D004D0A3
:1006610003EEC454F0FE8D077A000FBF00010AEFBC
:100671002516F98782C003C004C005C006C0001258
:1006810005E1AA82D000D006D005D004D003EA4EFD
:10069100F60D0D80A68C822285821775180A751CAD
:1006A100007D00A817860608EE60050D8D1C80F5FB
:1006B1008D1C7E007F00BD0200E433F51BBD0300ED
:1006C100E433FD751900C3E519951C400302077653
:1006D100E5192517F88603EE4F7043E51960057497
:1006E10001B51911BB620EE51B6004900000227573
:1006F1001802020771E5197011BB680EE51B600451
:10070100900000227518100207717401B5190FBB12
:10071100780CED60049000002275181080528B82D5
:10072100C005C006C0071205E185821AD007D006B0
:10073100D005C3E51A64808518F063F08095F05008
:100741002BC005E518F5723395E0F5738E828F8322
:10075100C005121766AB82AA83D005E51AFD339551
:10076100E0FCED2BFEEC3AFFD00580049000002266
:1007710005190206C78E828F8322539ADFA2AFE446
:1007810033F452A82274FC55C9F5F0740345F0F511
:10079100C953C9FB43C90880FE53BEFBE5BE30E621
:1007A100FB53C6B8E5C620E6FB43BE0422AA82ABD2
:1007B100831ABAFF011BC3E49A74808BF063F08043
:1007C10095F0500F7CB07D041CBCFF011DEC4D70F9
:0407D100F780DE22AD
:0A00E700754300754400C201C20217
:1007D50090192175F0800208D4D2030207E90215A9
:1007E5008D0215ECA2039200300306754200C2018A
:1007F50022C20222AA82AB83ACF030020F8A828B1E
:10080500838CF0E54312174DC202D322C322300078
:1008150004A201B322D322E544FA24FB4042EA2A8A
:100825002A90082A73020865020839020846020858
:10083500530208417582071207E380241207E680F8
:100845001FE542142422F886821207E3801275827E
:10085500081207E37582201207E37582081207E381
:1008650075440022AA82200006D2028A43803D30C8
:10087500010122BA08028011BA0D028005BA7F145F
:100885008007D2017544048023E542601F15427537
:100895004403801874E12542400F754402AB4205BC
:1008A50042EB2422F8A602800375440102081C309D
:1008B500001C300119E542600DE5422422F876005E
:1008C50075822212041D7542001207D5C20122AAA3
:1008D50082AB83ACF08A828B838CF0121820FD608A
:1008E500188D820ABA00010BC002C003C0041207AA
:1008F500E3D004D003D00280DC22AA82BA0A0050D9
:100905000674302AF5822274372AF58222AA827467
:10091500F05AC4540FF582C0021208FF1207E3D043
:1009250002740F5AF5821208FF0207E3AA82AB830D
:100935008B058D82C002C003120912D003D0028A32
:1009450082020912AA82AB83ACF0FD8B078C008D65
:10095500018982C002C003C004C005120912D00576
:10096500D0048C008882C004C005120912D005D0BD
:1009750004D0038B078F82C003C004C0051209127F
:10098500D005D004D003D0028A820209128582459F
:1009950085834685F047F548D2047E007FCA789A5C
:1009A500793BBE010CBF0009B80006B90003020A75
:1009B500698E728F738874897585458285468385AE
:1009C50047F0E548C006C007C000C0011216D4AA0A
:1009D50082AB83ACF0FDD001D000D007D006EA4B46
:1009E5004C4D6002C20420042C8E728F738874896A
:1009F500758545828546838547F0E548C006C0076D
:100A0500C000C0011216D41208FF1207E3D001D0AE
:100A150000D007D0068E728F7388748975854582DC
:100A25008546838547F0E548C006C007C000C0017C
:100A350012165185824585834685F047F548D001D4
:100A4500D000D007D00675720AE4F573F574F57514
:100A55008E828F8388F0E91216D4AE82AF83A8F018
:100A6500F90209A78545821208FF0207E3AA8275E4
:100A75008262C0021207E3D002EA30E70C758231C8
:100A8500C0021207E3D002800A758230C002120745
:100A9500E3D002EA30E60C758231C0021207E3D0DA
:100AA50002800A758230C0021207E3D002EA30E5FF
:100AB5000C758231C0021207E3D002800A758230BC
:100AC500C0021207E3D002EA30E40C758231C0029D
:100AD5001207E3D002800A758230C0021207E3D004
:100AE50002EA30E30C758231C0021207E3D00280BE
:100AF5000A758230C0021207E3D002EA30E20C75B3
:100B05008231C0021207E3D002800A758230C0022A
:100B15001207E3D002EA30E10C758231C0021207F8
:100B2500E3D002800A758230C0021207E3D002EAE0
:0F0B350030E0067582310207E37582300207E374
:021921003E0086
:0900F100756900C205C206C207D0
:100B440075824922AA827BFF90DF3BE0FCB502025A
:100B54008014EB6011900001C002C0031207AED0F4
:100B640003D0021B80E2EB7002C322D322AA82903C
:100B7400DF0074D3F090DF017491F090DF0274FF12
:100B8400F090DF037404F090DF047405F090DF0547
:100B9400E4F090DF06F090DF07740CF090DF08E4D7
:100BA400F090DF097421F090DF0A7465F090DF0B98
:100BB400746AF090DF0C742DF090DF0D743BF090AC
:100BC400DF0E7413F090DF0F7422F090DF1074F8CE
:100BD400F090DF117462F090DF127407F090DF136D
:100BE4007430F090DF147418F090DF15741DF090D9
:100BF400DF16741CF090DF1774C7F090DF18E4F070
:100C040090DF1974B0F090DF1A74B6F090DF1B74A3
:100C140010F090DF1C74EAF090DF1D742AF090DF6E
:100C24001EE4F090DF1F741FF090DF237488F090AF
:100C3400DF247431F090DF257409F090DF27E4F0AD
:100C440090DF28F090DF29F090DF2AF090DF2BE48A
:100C5400F090DF2CF090DF2DF090DF2E7450F090A8
:100C6400DF2FE4F090DF30F090DF31F090DF367466
:100C740001F090DF377403F090DF38E4F090DF394F
:100C8400F090DF3A7480F090DF3B7401F090DF3C29
:100C9400E4F090DF3D7494F090DF2E74C2F090DFA6
:100CA40003E04402F090DF05EAF075E900439A019D
:100CB400D2A84391F175E104758201120B48020E2A
:100CC4000390DF3BE0FABA132AAA497B000ABA0070
:100CD400010BAC697D00C3EC9AED64808BF063F08A
:100CE4008095F0500BAA690569EA2449F886D9224F
:100CF400D2052290DF3BE0FABA0D4BE5696022AAE7
:100D0400497B000ABA00010BAC697D00C3EC9AED83
:100D140064808BF063F08095F0501174E025694095
:100D24000BAA690569EA2449F8A6D922AA497B00D5
:100D34000ABA00010BAC697D00ECB50207EDB503FE
:100D440003D20722D20522539BFCE5E930E427AA0B
:100D5400497B000ABA00010BAC697D00ECB5020EB8
:100D6400EDB5030A75E104756900D207800875E1E1
:100D740004756900D205E5E920E70AE5E920E605FE
:100D8400E5E930E50875E104756900D205E5E93067
:100D9400E00375690075E900223006253005030279
:100DA4000E0330073490DF39E0FA30E7051210A162
:100DB400800C90192375F0801208D41207E6020EF5
:100DC4000330050F90192E75F0801208D41207E62F
:100DD400120E03300703020E032275E1047582012B
:100DE400120B48756900C206C207C20575E1037596
:100DF4008213120B482007033005FAA205B32275AB
:100E0400E104758201120B48C205756900D206C25D
:0A0E14000775E10275820D020B481C
:101923005258204261642043524300545820455288
:02193300520060
:100E1E00120B44E582F804F9E76038740328FAC02F
:100E2E0000A8028603D000EB30E728740228FCC02D
:100E3E0000A8048605D000A70590DF05E0FDA904F3
:100E4E00A705747F5BA902F7740428F9770076046E
:100E5E00020DDE22120B44A882880286031B1B1B86
:100E6E001B90193575F080C002C003C0001208D463
:100E7E0090193875F0801208D4D0008682C0001206
:100E8E00091290193E75F0801208D4D000E804F9CA
:100E9E008782C00012091290194475F0801208D48E
:100EAE00D000740228F98782C00012091290194AE4
:100EBE0075F0801208D4D000740328F98704747F6B
:100ECE005CF582C000C00112091290195075F080B5
:100EDE001208D4D001D000D003D002E7FC30E704D2
:100EEE007C3180027C308C82C002C003C0001207AD
:100EFE00E390195975F0801208D490DF3AE0F5822C
:100F0E0012091290196075F0801208D490DF39E042
:100F1E00FC53047F7D007E007F008C828D838EF0DB
:100F2E00EF12099290196675F0801208D4D000D095
:100F3E0003D00274042AF98782C003C0001209127A
:100F4E007582201207E3D000D003740528FAFC7DC9
:100F5E0000C3ED9B501BED2CF88682C002C003C06F
:100F6E0004C005120912D005D004D003D0020D80A2
:100F7E00E090196D75F080C002C0031208D4D00342
:100F8E00D0028A047A00C3EA9B5076EA2CF8868255
:100F9E00C002C003C004C0001217F4E582D000D016
:100FAE0004D003D00270188682C002C003C004129F
:100FBE0017E0E582D004D003D0027003FD80027DDD
:100FCE0001ED701BEA2CF88682C002C003C0041229
:100FDE001739E582D004D003D0027003FD80027D64
:100FEE0001ED6007EA2CF8860580027D2E8D82C009
:100FFE0002C003C0041207E3D004D003D0020A805B
:10100E008590197075F0801208D40207E6AA82C086
:10101E0002120B44A882D0027404251DF674022815
:10102E00F990DF05E0F7740428F9A702740528F596
:10103E008222AA82C002120B44AB82D002EB04F8C9
:10104E00A60274032BF8A61E120DDE500B90197219
:10105E0075F0801208D4800990197575F080120809
:10106E00D41207E690000A0207AE120B44A882E6DD
:10107E0024FCF50B740228F98782740328F9870281
:10108E00747F5AF508740428F98709740528F50A3F
:0C109E0002017D120E62121078020E1E7C
:10193500525800206C656E3D00206473743D002094
:101945007372633D00207365713D0020726571619E
:10195500636B3D0020727373693D00206C71693DB6
:101965000020747970653D0020220022004F4B0055
:051975004641494C0051
:1010AA002253FD3D53FE034380C24390FC9000014E
:1010BA001207AE7A007B00BB080040030211CFEB97
:1010CA00FC24F84057EB2B2B9010D6730210EE023B
:1010DA0010F00210F8021100021108021110021198
:1010EA0018021120803643FD025380FD802E43FEF4
:1010FA00045390FB802643FE085390F7801E43FE5C
:10110A00105390EF801643FE205390DF800E43FE6B
:10111A00405390BF800643FE8053907FAD807E008F
:10112A00EDF4FDEEF4FEED30E1027C01AD907E00BF
:10113A00EDF4FDEEF4FEED30E2027C02AD907E00AD
:10114A00EDF4FDEEF4FEED30E3027C03AD907E009B
:10115A00EDF4FDEEF4FEED30E4027C04AD907E0089
:10116A00EDF4FDEEF4FEED30E5027C05AD907E0077
:10117A00EDF4FDEEF4FEED30E6027C06AD907E0065
:10118A00EDF4FDEEF4FEED30E7027C07AD807E0063
:10119A00EDF4FDEEF4FEED30E6027C08AD807E0053
:1011AA00EDF4FDEEF4FEED30E7027C09ECB5030246
:1011BA00800DEA75F00AA42C90197A93F582220B15
:1011CA008B020210C1758200221210ABAA82C002E1
:1011DA001210ABAB82D002EAB5030280071210AB41
:1011EA00AA8280EA53FD3D53FE034380C24390FC2A
:0311FA008A8222C4
:10197A0000006F6B6E6D01700000000079676320D4
:10198A003C2C033E00000071776572747569000093
:10199A00000061736466686A0000000000827A7859
:1019AA0076620000000000008384850800000000C1
:1019BA00000000025E8700000000000000000D6CBD
:1011FD0043F32875860075C2AA75C530228582C154
:10120D00E58630E1FB5386FD22D28202120AAA82C4
:10121D00C2828A8202120AAA8274B0251FF582C088
:10122D000212121BD002740F5AF582C00212121B49
:10123D00D002EAC4540FFA740F5A2410F582021228
:10124D001BAA82743F5AF5F0744045F0F5820212E4
:10125D001BAA8274015AF5F074A645F0F5820212AC
:10126D001BAA827B00BB090050288B1F758200C012
:10127D0002C003121224D003D0027C848A82C002E1
:10128D00C003C004121216D004D003D002DCED0B43
:10129D0080D32243FD1443FE02C291900001120738
:1012AD00AED29175820112130A7582E212121B756C
:1012BD00822412121B75828112121B75826012120A
:1012CD001B7582E612121B75820012121B75822F7E
:1012DD0012121B7582A112121B7582AF12121B7591
:1012ED0082A412121B75820012125E7582001212F8
:1012FD004E7582FF12126E75820002130AE582FA94
:06130D00B40100928422ED
:1019CA00FFFFFFFFF7E3C1E3FFAB55ABFFE0DB002F
:1019DA00E0FA06D7FDFA0AAFF0F707AFFFE1EDE14B
:1019EA00FFDBD1DBF0FD0B70F8F7E80FF7F7F0FF3C
:1019FA00F7F707FFFFFF07F7FFFFF0F7F7F700F723
:101A0A00FFFDFDFDFFFBFBFBFFF7F7F7FFEFEFEF36
:101A1A00FFDFDFDFFFFF00F7F7F700FFEFEFE0EF91
:101A2A00EFEF0FEFFFFF00FFFFB7AB9DFF9DABB7D7
:101A3A00FDC1FDC1EBCBE3E9DB81EACEFFFFF7FF96
:101A4A00FFFFFFFFFFA1FFFFF9FFF9FF81DB81FF26
:101A5A00DB34CBFF9DE7B9FFC59AA5FFFFF9FFFF6E
:101A6A00FFC3BDFFBDC3FFFFD5E3D5FFF7C1F7FF36
:101A7A007F9FFFFFF7F7F7FFFF9FFFFF9FE7F9FF42
:101A8A00C3B5C3FFBB81BFFF9BADB3FFDDB5C9FFC4
:101A9A00E7EB81FFD1B5CDFFC3B5CDFFFD8DF1FFDA
:101AAA00CBB5CBFFB3ADC3FFFFDBFFFFBFDBFFFF50
:101ABA00EFD7BBFFEBEBEBFFBBD7EFFFFBADF3FFC2
:101ACA00C3BDB3FF83ED83FF81B5CBFFC3BDDBFF8E
:101ADA0081BDC3FF81B5B5FF81F5F5FFC3BDCBFF5E
:101AEA0081F781FFBD81BDFFDFBFC1FF81F789FF9C
:101AFA0081BFBFFF81FB81FF83E7C1FFC3BDC3FF76
:101B0A0081EDF3FFC39DA3FF81ED93FFDBB5CBFF0F
:101B1A00FD81FDFF81BF81FFC1BFC1FF81DF81FF61
:101B2A0089F789FFF987F9FF9DA5B9FFFF81BDFFF5
:101B3A00F9E79FFFBD81FFFFFBFDFBFF7F7F7F7FF3
:101B4A00FDFBFFFFDBAB87FF81B7CFFFC7BBBBFF47
:101B5A00CFB781FFC7ABA7FFF783F5FF675B83FFAB
:101B6A0081F78FFFB785BFFF7F7785FF81EF97FFEB
:101B7A00FF81FFFF83F783FF83FB87FFC7BBC7FF95
:101B8A0003DBE7FFE7DB03FF87FBFBFFB7ABDBFF0B
:101B9A00F781F7FF83BF83FFC3BFC3FF83DF83FFE1
:101BAA0093EF93FF635F83FF9BABB3FFF7C9BEFF5E
:101BBA00FF88FFFFBEC9F7FFFBF3F7FFFFFFFFFF39
:1000FA00756A00756B00756C00756D00C208C209DF
:04010A00C20AC20B58
:10131300AA82758201C00212130A75820112125E3B
:10132300D002856E1F8A82121224AA6FAB70AC7131
:101333008A828B838CF0121820F582C002C003C00E
:1013430004121216D004D003D00274012AFDE43B28
:10135300FE8C078D828E838FF0121820F582C002D7
:10136300C003C004121216D004D003D00274022AA0
:10137300FDE43BFE8C078D828E838FF0121820F5DF
:1013830082C002C003C004121216D004D003D002DC
:1013930074032AFAE43BFB8A828B838CF0121820B5
:1013A300F58212121675820002130A300A12756F43
:1013B3007275701A757180856C6E856B820213135A
:1013C300300912756F7E75701A757180856C6E8524
:1013D3006B82021313756F4675701B757180856C74
:1013E3006E856B820213131212A0D20BC209C20ABA
:1013F300756A00756B00756C000213AEC20B0212A6
:10140300A0AA82BA2C0302150FBA61030214CFBA41
:101413006203021503BA63030214FBBA64030214E2
:10142300D7BA65030214AFBA66030214DBBA6703C3
:101433000214DFBA68030214E3BA69030214C3BADD
:101443006A030214E7BA6B030214EBBA6C030214C7
:10145300EFBA6D0302150BBA6E03021507BA6F02DA
:101463008062BA70028061BA71028038BA720280F7
:101473003FBA7302805ABA74028039BA7502803C4B
:10148300BA76030214FFBA7702801DBA78030214F6
:10149300F7BA79028022BA7A028055BA8303021519
:1014A3001302151775823122758232227582332217
:1014B3007582402275822322758224227582262218
:1014C30075822D2275822B2275823D2275823422EC
:1014D300758235227582362275825C2275825F227F
:1014E30075823A2275823B227582222275822722D7
:1014F30075823722758238227582392275822822B5
:10150300758229227582212275822E2275823F22BD
:10151300758230228A8222200B01221211D3E582A6
:10152300FAB56D01228A6D300A098A82121404AA5F
:1015330082801130090EBA61004009EA2485400413
:1015430074E02AFABA0102802DBA02028028BA0393
:10155300028023BA82028014BA83028019BA8402F9
:10156300800FBA8502800FBA870D800AB209021371
:10157300AEB20A0213AE22BA000122C0021208134D
:10158300D00250058A8202086922AA82200B012216
:10159300BA081D756F4A75701A757180856C6E85F2
:1015A3006B82121313156B156B156B156B0213AE50
:1015B300BA070122EA247F50027A00EA75F004A4F4
:1015C30024CAFA741935F0FB8A6F8B7075718085A4
:1015D3006C6E856B82121313E56B2404F56BC39455
:1015E3008040031215EC0213AE200B0122756F4AE3
:1015F30075701A757180856C6E856B821213137505
:101603006B00056C74F8256C5005D208756C0030BE
:10161300083B7A00BA2000501CEA2A25E0F58275BF
:101623006F4A75701A757180856C6EC00212131340
:10163300D0020A80DF7408256AF56A7582011213E5
:101643000A856A8212124E75820002130A22F9E594
:101653007245734574457560777800C308E5752056
:10166300E73BE57225E0F572E57333F573E5743313
:10167300F574E57533F575E5829572E5839573E544
:10168300F09574E9957550D4C3E57513F575E57454
:1016930013F574E57313F573E57213F572E582952B
:1016A30072FCE5839573FDE5F09574FEE99575404D
:1016B30007F98EF08D838C82C3E57513F575E57498
:1016C30013F574E57313F573E57213F572D8CEE968
:1016D30022FB7A20E4FCFDFEFFE5822582F582E50C
:1016E3008333F583E5F033F5F0EB33FB4017DAE9A9
:1016F3008042E5822582F582E58333F583E5F03385
:10170300F5F0EB33FBEC33FCED33FDEE33FEEF335F
:10171300FFEC9572ED9573EE9574EF95754013ECB0
:101723009572FCED9573FDEE9574FEEF9575FF4391
:061733008201DABEEB2288
:0600BA00E478FFF6D8FD1A
:10173900AA82BA30004009EA24C64004758201220F
:041749007582002283
:100098007900E94400601B7A00901BCA78007593C8
:1000A80000E493F2A308B800020593D9F4DAF275D4
:0200B80093FFB4
:10174D0020F71030F6118883A88220F507F6A883BC
:10175D0075830022F280F7F022E5828572F0A4C530
:10176D0082C0F08573F0A4D0F025F0C5838572F0AA
:10177D00A42583F58322AA82AB83ACF0AD72AE7340
:10178D00AF748A828B838CF0121820F87900C00216
:10179D00C003C0048D828E838FF0121820FA7B0057
:1017AD00E8C39AF8E99BF988758976D004D003D0FF
:1017BD0002E84970178D828E838FF0121820600C0D
:1017CD000ABA00010B0DBD00B90E80B68575828574
:0317DD00768322EE
:1000C0007800E84400600A7900759300E4F309D8E9
:1000D000FC7800E84400600C7900900000E4F0A394
:0400E000D8FCD9FA75
:1017E000AA82BA61004009EA248540047582012278
:1017F00075820022AA82BA41004009EA24A5400469
:101800007582012275820022AA82AB8312182060A1
:1018100003A380F8C3E5829AF582E5839BF58322D2
:0D008B0075817612183CE582600302008644
:1018200020F71430F6148883A88220F507E6A883F1
:1018300075830022E280F7E49322E0227582002281
:00000001FF
